{
  "contractName": "Loo",
  "abi": [
    {
      "constant": true,
      "inputs": [],
      "name": "name",
      "outputs": [
        {
          "name": "",
          "type": "string"
        }
      ],
      "payable": false,
      "stateMutability": "view",
      "type": "function"
    },
    {
      "constant": true,
      "inputs": [
        {
          "name": "_tokenId",
          "type": "uint256"
        }
      ],
      "name": "getApproved",
      "outputs": [
        {
          "name": "",
          "type": "address"
        }
      ],
      "payable": false,
      "stateMutability": "view",
      "type": "function"
    },
    {
      "constant": false,
      "inputs": [
        {
          "name": "_to",
          "type": "address"
        },
        {
          "name": "_tokenId",
          "type": "uint256"
        }
      ],
      "name": "approve",
      "outputs": [],
      "payable": false,
      "stateMutability": "nonpayable",
      "type": "function"
    },
    {
      "constant": true,
      "inputs": [],
      "name": "totalSupply",
      "outputs": [
        {
          "name": "",
          "type": "uint256"
        }
      ],
      "payable": false,
      "stateMutability": "view",
      "type": "function"
    },
    {
      "constant": false,
      "inputs": [
        {
          "name": "_from",
          "type": "address"
        },
        {
          "name": "_to",
          "type": "address"
        },
        {
          "name": "_tokenId",
          "type": "uint256"
        }
      ],
      "name": "transferFrom",
      "outputs": [],
      "payable": false,
      "stateMutability": "nonpayable",
      "type": "function"
    },
    {
      "constant": true,
      "inputs": [
        {
          "name": "_owner",
          "type": "address"
        },
        {
          "name": "_index",
          "type": "uint256"
        }
      ],
      "name": "tokenOfOwnerByIndex",
      "outputs": [
        {
          "name": "",
          "type": "uint256"
        }
      ],
      "payable": false,
      "stateMutability": "view",
      "type": "function"
    },
    {
      "constant": false,
      "inputs": [
        {
          "name": "_from",
          "type": "address"
        },
        {
          "name": "_to",
          "type": "address"
        },
        {
          "name": "_tokenId",
          "type": "uint256"
        }
      ],
      "name": "safeTransferFrom",
      "outputs": [],
      "payable": false,
      "stateMutability": "nonpayable",
      "type": "function"
    },
    {
      "constant": true,
      "inputs": [
        {
          "name": "_tokenId",
          "type": "uint256"
        }
      ],
      "name": "exists",
      "outputs": [
        {
          "name": "",
          "type": "bool"
        }
      ],
      "payable": false,
      "stateMutability": "view",
      "type": "function"
    },
    {
      "constant": true,
      "inputs": [
        {
          "name": "_index",
          "type": "uint256"
        }
      ],
      "name": "tokenByIndex",
      "outputs": [
        {
          "name": "",
          "type": "uint256"
        }
      ],
      "payable": false,
      "stateMutability": "view",
      "type": "function"
    },
    {
      "constant": true,
      "inputs": [
        {
          "name": "_tokenId",
          "type": "uint256"
        }
      ],
      "name": "ownerOf",
      "outputs": [
        {
          "name": "",
          "type": "address"
        }
      ],
      "payable": false,
      "stateMutability": "view",
      "type": "function"
    },
    {
      "constant": true,
      "inputs": [
        {
          "name": "_owner",
          "type": "address"
        }
      ],
      "name": "balanceOf",
      "outputs": [
        {
          "name": "",
          "type": "uint256"
        }
      ],
      "payable": false,
      "stateMutability": "view",
      "type": "function"
    },
    {
      "constant": true,
      "inputs": [],
      "name": "symbol",
      "outputs": [
        {
          "name": "",
          "type": "string"
        }
      ],
      "payable": false,
      "stateMutability": "view",
      "type": "function"
    },
    {
      "constant": false,
      "inputs": [
        {
          "name": "_to",
          "type": "address"
        },
        {
          "name": "_approved",
          "type": "bool"
        }
      ],
      "name": "setApprovalForAll",
      "outputs": [],
      "payable": false,
      "stateMutability": "nonpayable",
      "type": "function"
    },
    {
      "constant": false,
      "inputs": [
        {
          "name": "_from",
          "type": "address"
        },
        {
          "name": "_to",
          "type": "address"
        },
        {
          "name": "_tokenId",
          "type": "uint256"
        },
        {
          "name": "_data",
          "type": "bytes"
        }
      ],
      "name": "safeTransferFrom",
      "outputs": [],
      "payable": false,
      "stateMutability": "nonpayable",
      "type": "function"
    },
    {
      "constant": true,
      "inputs": [
        {
          "name": "_tokenId",
          "type": "uint256"
        }
      ],
      "name": "tokenURI",
      "outputs": [
        {
          "name": "",
          "type": "string"
        }
      ],
      "payable": false,
      "stateMutability": "view",
      "type": "function"
    },
    {
      "constant": true,
      "inputs": [
        {
          "name": "_owner",
          "type": "address"
        },
        {
          "name": "_operator",
          "type": "address"
        }
      ],
      "name": "isApprovedForAll",
      "outputs": [
        {
          "name": "",
          "type": "bool"
        }
      ],
      "payable": false,
      "stateMutability": "view",
      "type": "function"
    },
    {
      "inputs": [
        {
          "name": "_plasma",
          "type": "address"
        }
      ],
      "payable": false,
      "stateMutability": "nonpayable",
      "type": "constructor"
    },
    {
      "anonymous": false,
      "inputs": [
        {
          "indexed": true,
          "name": "_from",
          "type": "address"
        },
        {
          "indexed": true,
          "name": "_to",
          "type": "address"
        },
        {
          "indexed": false,
          "name": "_tokenId",
          "type": "uint256"
        }
      ],
      "name": "Transfer",
      "type": "event"
    },
    {
      "anonymous": false,
      "inputs": [
        {
          "indexed": true,
          "name": "_owner",
          "type": "address"
        },
        {
          "indexed": true,
          "name": "_approved",
          "type": "address"
        },
        {
          "indexed": false,
          "name": "_tokenId",
          "type": "uint256"
        }
      ],
      "name": "Approval",
      "type": "event"
    },
    {
      "anonymous": false,
      "inputs": [
        {
          "indexed": true,
          "name": "_owner",
          "type": "address"
        },
        {
          "indexed": true,
          "name": "_operator",
          "type": "address"
        },
        {
          "indexed": false,
          "name": "_approved",
          "type": "bool"
        }
      ],
      "name": "ApprovalForAll",
      "type": "event"
    },
    {
      "constant": false,
      "inputs": [],
      "name": "register",
      "outputs": [],
      "payable": false,
      "stateMutability": "nonpayable",
      "type": "function"
    },
    {
      "constant": false,
      "inputs": [],
      "name": "create",
      "outputs": [],
      "payable": false,
      "stateMutability": "nonpayable",
      "type": "function"
    },
    {
      "constant": false,
      "inputs": [
        {
          "name": "tokenId",
          "type": "uint256"
        },
        {
          "name": "_data",
          "type": "bytes"
        }
      ],
      "name": "depositToPlasmaWithData",
      "outputs": [],
      "payable": false,
      "stateMutability": "nonpayable",
      "type": "function"
    },
    {
      "constant": false,
      "inputs": [
        {
          "name": "tokenId",
          "type": "uint256"
        }
      ],
      "name": "depositToPlasma",
      "outputs": [],
      "payable": false,
      "stateMutability": "nonpayable",
      "type": "function"
    }
  ],
  "bytecode": "0x602e6101608181527f516d4e53783764423570386658326b38426971567954345373636f5736645574610180527f3834344b3158334b5956435377730000000000000000000000000000000000006101a05260809081526101c08281527f516d5950365373506661576465545a52356871704734395a67796266736e504d6101e0527f79397371434653697546736f65590000000000000000000000000000000000006102005260a0526102208281527f516d51486a55516a7734337a664c4178547451784a4c767077326d6a626d4b48610240527f71336f46434263707a586338637a0000000000000000000000000000000000006102605260c0526102808281527f516d5a36567a554e4342364c4e657571444e616d7378446663624b7a5a3865526102a0527f624c56535a3373764a72334442410000000000000000000000000000000000006102c05260e0526102e08281527f516d5943614676736e38754241685252374a356a44687463624333564e73556a610300527f746b4a387a6b3358343266425a7000000000000000000000000000000000000061032052610100526103408281527f516d5844377538324d6678674b4e574b5645644b7a6f52434351625961336d46610360527f6f653675465a6a4e775068424a6800000000000000000000000000000000000061038052610120526104006040526103a09182527f516d515968516656446168445a6b33514533635137713458666d776e4b5a41756103c0527f6b59536b534a37475439424439760000000000000000000000000000000000006103e052610140919091526200026490600d90600762000355565b50600e805463ffffffff191690553480156200027f57600080fd5b50604051602080620017a483398101604081815291518282018352600382527f4c6f6f00000000000000000000000000000000000000000000000000000000006020808401918252845180860190955260048086527f4c415354000000000000000000000000000000000000000000000000000000009186019190915283519294926200030d9290620003b9565b50805162000323906005906020840190620003b9565b5050600b8054600160a060020a03909316600160a060020a031993841617905550600c805490911633179055620004cd565b828054828255906000526020600020908101928215620003a7579160200282015b82811115620003a7578251805162000396918491602090910190620003b9565b509160200191906001019062000376565b50620003b59291506200043a565b5090565b828054600181600116156101000203166002900490600052602060002090601f016020900481019282601f10620003fc57805160ff19168380011785556200042c565b828001600101855582156200042c579182015b828111156200042c5782518255916020019190600101906200040f565b50620003b592915062000465565b6200046291905b80821115620003b557600062000458828262000482565b5060010162000441565b90565b6200046291905b80821115620003b557600081556001016200046c565b50805460018160011615610100020316600290046000825580601f10620004aa5750620004ca565b601f016020900490600052602060002090810190620004ca919062000465565b50565b6112c780620004dd6000396000f3006080604052600436106101115763ffffffff7c010000000000000000000000000000000000000000000000000000000060003504166306fdde038114610116578063081812fc146101a0578063095ea7b3146101d457806318160ddd146101fa5780631aa3a0081461022157806323b872dd146102365780632f745c5914610260578063319876f81461028457806336ce5e47146102e257806342842e0e146102fa5780634f558e79146103245780634f6ccce7146103505780636352211e1461036857806370a082311461038057806395d89b41146103a1578063a22cb465146103b6578063b88d4fde146103dc578063c87b56dd1461044b578063e985e9c514610463578063efc81a8c1461048a575b600080fd5b34801561012257600080fd5b5061012b61049f565b6040805160208082528351818301528351919283929083019185019080838360005b8381101561016557818101518382015260200161014d565b50505050905090810190601f1680156101925780820380516001836020036101000a031916815260200191505b509250505060405180910390f35b3480156101ac57600080fd5b506101b8600435610536565b60408051600160a060020a039092168252519081900360200190f35b3480156101e057600080fd5b506101f8600160a060020a0360043516602435610551565b005b34801561020657600080fd5b5061020f610643565b60408051918252519081900360200190f35b34801561022d57600080fd5b506101f8610649565b34801561024257600080fd5b506101f8600160a060020a0360043581169060243516604435610668565b34801561026c57600080fd5b5061020f600160a060020a0360043516602435610717565b34801561029057600080fd5b5060408051602060046024803582810135601f81018590048502860185019096528585526101f89583359536956044949193909101919081908401838280828437509497506107649650505050505050565b3480156102ee57600080fd5b506101f8600435610798565b34801561030657600080fd5b506101f8600160a060020a03600435811690602435166044356107c3565b34801561033057600080fd5b5061033c6004356107fb565b604080519115158252519081900360200190f35b34801561035c57600080fd5b5061020f600435610818565b34801561037457600080fd5b506101b860043561084d565b34801561038c57600080fd5b5061020f600160a060020a0360043516610877565b3480156103ad57600080fd5b5061012b6108aa565b3480156103c257600080fd5b506101f8600160a060020a0360043516602435151561090b565b3480156103e857600080fd5b50604080516020601f6064356004818101359283018490048402850184019095528184526101f894600160a060020a03813581169560248035909216956044359536956084940191819084018382808284375094975061098f9650505050505050565b34801561045757600080fd5b5061012b6004356109ce565b34801561046f57600080fd5b5061033c600160a060020a0360043581169060243516610a83565b34801561049657600080fd5b506101f8610ab1565b60048054604080516020601f600260001961010060018816150201909516949094049384018190048102820181019092528281526060939092909183018282801561052b5780601f106105005761010080835404028352916020019161052b565b820191906000526020600020905b81548152906001019060200180831161050e57829003601f168201915b505050505090505b90565b600090815260016020526040902054600160a060020a031690565b600061055c8261084d565b9050600160a060020a03838116908216141561057757600080fd5b33600160a060020a038216148061059357506105938133610a83565b151561059e57600080fd5b60006105a983610536565b600160a060020a03161415806105c75750600160a060020a03831615155b1561063e57600082815260016020908152604091829020805473ffffffffffffffffffffffffffffffffffffffff1916600160a060020a03878116918217909255835186815293519093918516927f8c5be1e5ebec7d5bd14f71427d1e84f3dd0314c0f7b2291e5b200ac8c7c3b925928290030190a35b505050565b60085490565b60005b60058112156106655761065d610ab1565b60010161064c565b50565b806106733382610b97565b151561067e57600080fd5b600160a060020a038416151561069357600080fd5b600160a060020a03831615156106a857600080fd5b6106b28483610bf6565b6106bc8483610ca3565b6106c68383610ddc565b82600160a060020a031684600160a060020a03167fddf252ad1be2c89b69c2b068fc378daa952ba7f163c4a11628f55a4df523b3ef846040518082815260200191505060405180910390a350505050565b600061072283610877565b821061072d57600080fd5b600160a060020a038316600090815260066020526040902080548390811061075157fe5b9060005260206000200154905092915050565b600b54600160a060020a0316151561077b57600080fd5b600b54610794903390600160a060020a0316848461098f565b5050565b600b54600160a060020a031615156107af57600080fd5b600b54610665903390600160a060020a0316835b806107ce3382610b97565b15156107d957600080fd5b6107f5848484602060405190810160405280600081525061098f565b50505050565b600090815260208190526040902054600160a060020a0316151590565b6000610822610643565b821061082d57600080fd5b600880548390811061083b57fe5b90600052602060002001549050919050565b600081815260208190526040812054600160a060020a031680151561087157600080fd5b92915050565b6000600160a060020a038216151561088e57600080fd5b50600160a060020a031660009081526002602052604090205490565b60058054604080516020601f600260001961010060018816150201909516949094049384018190048102820181019092528281526060939092909183018282801561052b5780601f106105005761010080835404028352916020019161052b565b600160a060020a03821633141561092157600080fd5b336000818152600360209081526040808320600160a060020a03871680855290835292819020805460ff1916861515908117909155815190815290519293927f17307eab39ab6107e8899845ad3d59bd9653f200f220920489ca2b5937696c31929181900390910190a35050565b8161099a3382610b97565b15156109a557600080fd5b6109b0858585610668565b6109bc85858585610e25565b15156109c757600080fd5b5050505050565b60606109d9826107fb565b15156109e457600080fd5b6000828152600a602090815260409182902080548351601f600260001961010060018616150201909316929092049182018490048402810184019094528084529091830182828015610a775780601f10610a4c57610100808354040283529160200191610a77565b820191906000526020600020905b815481529060010190602001808311610a5a57829003601f168201915b50505050509050919050565b600160a060020a03918216600090815260036020908152604080832093909416825291909152205460ff1690565b600854600101610ac13382610fae565b600e54600d8054610b789284929163ffffffff909116908110610ae057fe5b600091825260209182902001805460408051601f6002600019610100600187161502019094169390930492830185900485028101850190915281815292830182828015610b6e5780601f10610b4357610100808354040283529160200191610b6e565b820191906000526020600020905b815481529060010190602001808311610b5157829003601f168201915b5050505050610ffd565b50600e805463ffffffff8082166001011663ffffffff19909116179055565b600080610ba38361084d565b905080600160a060020a031684600160a060020a03161480610bde575083600160a060020a0316610bd384610536565b600160a060020a0316145b80610bee5750610bee8185610a83565b949350505050565b81600160a060020a0316610c098261084d565b600160a060020a031614610c1c57600080fd5b600081815260016020526040902054600160a060020a031615610794576000818152600160209081526040808320805473ffffffffffffffffffffffffffffffffffffffff1916905580518481529051600160a060020a038616927f8c5be1e5ebec7d5bd14f71427d1e84f3dd0314c0f7b2291e5b200ac8c7c3b925928290030190a35050565b6000806000610cb28585611030565b600084815260076020908152604080832054600160a060020a0389168452600690925290912054909350610ced90600163ffffffff6110c516565b600160a060020a038616600090815260066020526040902080549193509083908110610d1557fe5b90600052602060002001549050806006600087600160a060020a0316600160a060020a0316815260200190815260200160002084815481101515610d5557fe5b6000918252602080832090910192909255600160a060020a0387168152600690915260408120805484908110610d8757fe5b6000918252602080832090910192909255600160a060020a0387168152600690915260409020805490610dbe9060001983016111df565b50600093845260076020526040808520859055908452909220555050565b6000610de883836110d7565b50600160a060020a039091166000908152600660209081526040808320805460018101825590845282842081018590559383526007909152902055565b600080610e3a85600160a060020a0316611166565b1515610e495760019150610fa5565b84600160a060020a031663f0b9e5ba8786866040518463ffffffff167c01000000000000000000000000000000000000000000000000000000000281526004018084600160a060020a0316600160a060020a0316815260200183815260200180602001828103825283818151815260200191508051906020019080838360005b83811015610ee1578181015183820152602001610ec9565b50505050905090810190601f168015610f0e5780820380516001836020036101000a031916815260200191505b50945050505050602060405180830381600087803b158015610f2f57600080fd5b505af1158015610f43573d6000803e3d6000fd5b505050506040513d6020811015610f5957600080fd5b50517fffffffff0000000000000000000000000000000000000000000000000000000081167ff0b9e5ba0000000000000000000000000000000000000000000000000000000014925090505b50949350505050565b610fb8828261116e565b600880546000838152600960205260408120829055600182018355919091527ff3f7a9fe364faab93b216da50a3214154f22a0a2b415b23a84c8169e8b636ee3015550565b611006826107fb565b151561101157600080fd5b6000828152600a60209081526040909120825161063e92840190611203565b81600160a060020a03166110438261084d565b600160a060020a03161461105657600080fd5b600160a060020a03821660009081526002602052604090205461108090600163ffffffff6110c516565b600160a060020a039092166000908152600260209081526040808320949094559181529081905220805473ffffffffffffffffffffffffffffffffffffffff19169055565b6000828211156110d157fe5b50900390565b600081815260208190526040902054600160a060020a0316156110f957600080fd5b600081815260208181526040808320805473ffffffffffffffffffffffffffffffffffffffff1916600160a060020a038716908117909155835260029091529020546111469060016111d2565b600160a060020a0390921660009081526002602052604090209190915550565b6000903b1190565b600160a060020a038216151561118357600080fd5b61118d8282610ddc565b604080518281529051600160a060020a038416916000917fddf252ad1be2c89b69c2b068fc378daa952ba7f163c4a11628f55a4df523b3ef9181900360200190a35050565b8181018281101561087157fe5b81548183558181111561063e5760008381526020902061063e918101908301611281565b828054600181600116156101000203166002900490600052602060002090601f016020900481019282601f1061124457805160ff1916838001178555611271565b82800160010185558215611271579182015b82811115611271578251825591602001919060010190611256565b5061127d929150611281565b5090565b61053391905b8082111561127d57600081556001016112875600a165627a7a72305820773b316e01852e2258de49fac076e80334d821b531bbdbbd4d2511929ec0fb650029",
  "source": "pragma solidity ^0.4.24;\n// pragma experimental ABIEncoderV2;\n\nimport \"openzeppelin-solidity/contracts/token/ERC721/ERC721Token.sol\";\n\n\ncontract Loo is ERC721Token(\"Loo\", \"LAST\") {\n\n    address plasma;\n    address private _creator; \n    string[] private _uris =\n    [\"QmNSx7dB5p8fX2k8BiqVyT4SscoW6dUt844K1X3KYVCSws\",\n    \"QmYP6SsPfaWdeTZR5hqpG49ZgybfsnPMy9sqCFSiuFsoeY\",\n    \"QmQHjUQjw43zfLAxTtQxJLvpw2mjbmKHq3oFCBcpzXc8cz\",\n    \"QmZ6VzUNCB6LNeuqDNamsxDfcbKzZ8eRbLVSZ3svJr3DBA\",\n    \"QmYCaFvsn8uBAhRR7J5jDhtcbC3VNsUjtkJ8zk3X42fBZp\",\n    \"QmXD7u82MfxgKNWKVEdKzoRCCQbYa3mFoe6uFZjNwPhBJh\",\n    \"QmQYhQfVDahDZk3QE3cQ7q4XfmwnKZAukYSkSJ7GT9BD9v\"];\n    uint32 private _uriIndex = 0;\n\n    constructor (address _plasma) public {\n        plasma = _plasma;\n        _creator = msg.sender;\n    }\n\n    modifier onlyCreator(address creator) {\n        require(msg.sender == _creator);\n        _;\n    }\n\n    function register() external {\n        // Give each new player 5 cards\n        for (int j = 0; j < 5; j++) {\n            create();            \n        }\n    }\n\n    //1. User registers and sends the contract some ETH.\n    //2. LOO Contract mints tokens\n        //a. Call from database to create JSON file for each animal -- uses a script.\n        //b. Put JSON file on IPFS, obtain hash as tokenURI.\n        //c. Assign tokenURI to minted token.\n    //3. Transfer token to user -- transferFrom(creator, destaddress, tokenID)\n    //4. Users can transfer via plasma cash.\n    \n    function create() public {\n        uint256 tokenId = allTokens.length + 1;\n        _mint(msg.sender, tokenId);\n        _setTokenURI(tokenId, _uris[_uriIndex]);\n        _uriIndex += 1;\n    }\n\n    function depositToPlasmaWithData(uint tokenId, bytes _data) public {\n        require(plasma != address(0));\n        safeTransferFrom(\n            msg.sender,\n            plasma,\n            tokenId,\n            _data);\n    }\n\n    function depositToPlasma(uint tokenId) public {\n        require(plasma != address(0));\n        safeTransferFrom(msg.sender, plasma, tokenId);\n    }\n\n}\n",
  "sourcePath": "/Users/NichananK/Desktop/Last-Nifty/last-server/contracts/Core/Loo.sol",
  "compiler": {
    "name": "solc",
    "version": "0.4.24+commit.e67f0147.Emscripten.clang"
  },
  "schemaVersion": "2.0.0",
  "updatedAt": "2018-07-26T03:34:21.856Z"
}