{
  "contractName": "RootChain",
  "abi": [
    {
      "constant": true,
      "inputs": [
        {
          "name": "",
          "type": "address"
        }
      ],
      "name": "balances",
      "outputs": [
        {
          "name": "bonded",
          "type": "uint256"
        },
        {
          "name": "withdrawable",
          "type": "uint256"
        }
      ],
      "payable": false,
      "stateMutability": "view",
      "type": "function"
    },
    {
      "constant": true,
      "inputs": [],
      "name": "childBlockInterval",
      "outputs": [
        {
          "name": "",
          "type": "uint256"
        }
      ],
      "payable": false,
      "stateMutability": "view",
      "type": "function"
    },
    {
      "constant": true,
      "inputs": [],
      "name": "numCoins",
      "outputs": [
        {
          "name": "",
          "type": "uint64"
        }
      ],
      "payable": false,
      "stateMutability": "view",
      "type": "function"
    },
    {
      "constant": true,
      "inputs": [
        {
          "name": "",
          "type": "uint256"
        }
      ],
      "name": "exitSlots",
      "outputs": [
        {
          "name": "",
          "type": "uint64"
        }
      ],
      "payable": false,
      "stateMutability": "view",
      "type": "function"
    },
    {
      "constant": true,
      "inputs": [],
      "name": "currentBlock",
      "outputs": [
        {
          "name": "",
          "type": "uint256"
        }
      ],
      "payable": false,
      "stateMutability": "view",
      "type": "function"
    },
    {
      "constant": true,
      "inputs": [
        {
          "name": "",
          "type": "uint256"
        }
      ],
      "name": "childChain",
      "outputs": [
        {
          "name": "root",
          "type": "bytes32"
        },
        {
          "name": "createdAt",
          "type": "uint256"
        }
      ],
      "payable": false,
      "stateMutability": "view",
      "type": "function"
    },
    {
      "inputs": [
        {
          "name": "_vmc",
          "type": "address"
        }
      ],
      "payable": false,
      "stateMutability": "nonpayable",
      "type": "constructor"
    },
    {
      "anonymous": false,
      "inputs": [
        {
          "indexed": true,
          "name": "slot",
          "type": "uint64"
        },
        {
          "indexed": false,
          "name": "blockNumber",
          "type": "uint256"
        },
        {
          "indexed": false,
          "name": "denomination",
          "type": "uint64"
        },
        {
          "indexed": true,
          "name": "from",
          "type": "address"
        },
        {
          "indexed": true,
          "name": "contractAddress",
          "type": "address"
        }
      ],
      "name": "Deposit",
      "type": "event"
    },
    {
      "anonymous": false,
      "inputs": [
        {
          "indexed": false,
          "name": "blockNumber",
          "type": "uint256"
        },
        {
          "indexed": false,
          "name": "root",
          "type": "bytes32"
        },
        {
          "indexed": false,
          "name": "timestamp",
          "type": "uint256"
        }
      ],
      "name": "SubmittedBlock",
      "type": "event"
    },
    {
      "anonymous": false,
      "inputs": [
        {
          "indexed": true,
          "name": "slot",
          "type": "uint64"
        },
        {
          "indexed": true,
          "name": "owner",
          "type": "address"
        }
      ],
      "name": "StartedExit",
      "type": "event"
    },
    {
      "anonymous": false,
      "inputs": [
        {
          "indexed": true,
          "name": "slot",
          "type": "uint64"
        }
      ],
      "name": "ChallengedExit",
      "type": "event"
    },
    {
      "anonymous": false,
      "inputs": [
        {
          "indexed": true,
          "name": "slot",
          "type": "uint64"
        }
      ],
      "name": "RespondedExitChallenge",
      "type": "event"
    },
    {
      "anonymous": false,
      "inputs": [
        {
          "indexed": true,
          "name": "slot",
          "type": "uint64"
        },
        {
          "indexed": false,
          "name": "owner",
          "type": "address"
        }
      ],
      "name": "FinalizedExit",
      "type": "event"
    },
    {
      "anonymous": false,
      "inputs": [
        {
          "indexed": true,
          "name": "from",
          "type": "address"
        },
        {
          "indexed": false,
          "name": "amount",
          "type": "uint256"
        }
      ],
      "name": "FreedBond",
      "type": "event"
    },
    {
      "anonymous": false,
      "inputs": [
        {
          "indexed": true,
          "name": "from",
          "type": "address"
        },
        {
          "indexed": true,
          "name": "to",
          "type": "address"
        },
        {
          "indexed": false,
          "name": "amount",
          "type": "uint256"
        }
      ],
      "name": "SlashedBond",
      "type": "event"
    },
    {
      "anonymous": false,
      "inputs": [
        {
          "indexed": true,
          "name": "from",
          "type": "address"
        },
        {
          "indexed": false,
          "name": "amount",
          "type": "uint256"
        }
      ],
      "name": "WithdrewBonds",
      "type": "event"
    },
    {
      "constant": false,
      "inputs": [
        {
          "name": "root",
          "type": "bytes32"
        }
      ],
      "name": "submitBlock",
      "outputs": [],
      "payable": false,
      "stateMutability": "nonpayable",
      "type": "function"
    },
    {
      "constant": false,
      "inputs": [
        {
          "name": "slot",
          "type": "uint64"
        },
        {
          "name": "prevTxBytes",
          "type": "bytes"
        },
        {
          "name": "exitingTxBytes",
          "type": "bytes"
        },
        {
          "name": "prevTxInclusionProof",
          "type": "bytes"
        },
        {
          "name": "exitingTxInclusionProof",
          "type": "bytes"
        },
        {
          "name": "signature",
          "type": "bytes"
        },
        {
          "name": "blocks",
          "type": "uint256[2]"
        }
      ],
      "name": "startExit",
      "outputs": [],
      "payable": true,
      "stateMutability": "payable",
      "type": "function"
    },
    {
      "constant": false,
      "inputs": [
        {
          "name": "slot",
          "type": "uint64"
        }
      ],
      "name": "finalizeExit",
      "outputs": [],
      "payable": false,
      "stateMutability": "nonpayable",
      "type": "function"
    },
    {
      "constant": false,
      "inputs": [],
      "name": "finalizeExits",
      "outputs": [],
      "payable": false,
      "stateMutability": "nonpayable",
      "type": "function"
    },
    {
      "constant": false,
      "inputs": [
        {
          "name": "slot",
          "type": "uint64"
        }
      ],
      "name": "withdraw",
      "outputs": [],
      "payable": false,
      "stateMutability": "nonpayable",
      "type": "function"
    },
    {
      "constant": false,
      "inputs": [
        {
          "name": "slot",
          "type": "uint64"
        },
        {
          "name": "prevTxBytes",
          "type": "bytes"
        },
        {
          "name": "txBytes",
          "type": "bytes"
        },
        {
          "name": "prevTxInclusionProof",
          "type": "bytes"
        },
        {
          "name": "txInclusionProof",
          "type": "bytes"
        },
        {
          "name": "signature",
          "type": "bytes"
        },
        {
          "name": "blocks",
          "type": "uint256[2]"
        }
      ],
      "name": "challengeBefore",
      "outputs": [],
      "payable": true,
      "stateMutability": "payable",
      "type": "function"
    },
    {
      "constant": false,
      "inputs": [
        {
          "name": "slot",
          "type": "uint64"
        },
        {
          "name": "challengingBlockNumber",
          "type": "uint256"
        },
        {
          "name": "challengingTransaction",
          "type": "bytes"
        },
        {
          "name": "proof",
          "type": "bytes"
        },
        {
          "name": "signature",
          "type": "bytes"
        }
      ],
      "name": "respondChallengeBefore",
      "outputs": [],
      "payable": false,
      "stateMutability": "nonpayable",
      "type": "function"
    },
    {
      "constant": false,
      "inputs": [
        {
          "name": "slot",
          "type": "uint64"
        },
        {
          "name": "challengingBlockNumber",
          "type": "uint256"
        },
        {
          "name": "challengingTransaction",
          "type": "bytes"
        },
        {
          "name": "proof",
          "type": "bytes"
        },
        {
          "name": "signature",
          "type": "bytes"
        }
      ],
      "name": "challengeBetween",
      "outputs": [],
      "payable": false,
      "stateMutability": "nonpayable",
      "type": "function"
    },
    {
      "constant": false,
      "inputs": [
        {
          "name": "slot",
          "type": "uint64"
        },
        {
          "name": "challengingBlockNumber",
          "type": "uint256"
        },
        {
          "name": "challengingTransaction",
          "type": "bytes"
        },
        {
          "name": "proof",
          "type": "bytes"
        },
        {
          "name": "signature",
          "type": "bytes"
        }
      ],
      "name": "challengeAfter",
      "outputs": [],
      "payable": false,
      "stateMutability": "nonpayable",
      "type": "function"
    },
    {
      "constant": false,
      "inputs": [],
      "name": "withdrawBonds",
      "outputs": [],
      "payable": false,
      "stateMutability": "nonpayable",
      "type": "function"
    },
    {
      "constant": false,
      "inputs": [
        {
          "name": "_from",
          "type": "address"
        },
        {
          "name": "_uid",
          "type": "uint256"
        },
        {
          "name": "",
          "type": "bytes"
        }
      ],
      "name": "onERC721Received",
      "outputs": [
        {
          "name": "",
          "type": "bytes4"
        }
      ],
      "payable": false,
      "stateMutability": "nonpayable",
      "type": "function"
    },
    {
      "constant": true,
      "inputs": [
        {
          "name": "txHash",
          "type": "bytes32"
        },
        {
          "name": "root",
          "type": "bytes32"
        },
        {
          "name": "slot",
          "type": "uint64"
        },
        {
          "name": "proof",
          "type": "bytes"
        }
      ],
      "name": "checkMembership",
      "outputs": [
        {
          "name": "",
          "type": "bool"
        }
      ],
      "payable": false,
      "stateMutability": "view",
      "type": "function"
    },
    {
      "constant": true,
      "inputs": [
        {
          "name": "slot",
          "type": "uint64"
        }
      ],
      "name": "getPlasmaCoin",
      "outputs": [
        {
          "name": "",
          "type": "uint64"
        },
        {
          "name": "",
          "type": "uint256"
        },
        {
          "name": "",
          "type": "uint32"
        },
        {
          "name": "",
          "type": "address"
        },
        {
          "name": "",
          "type": "address"
        },
        {
          "name": "",
          "type": "uint8"
        }
      ],
      "payable": false,
      "stateMutability": "view",
      "type": "function"
    },
    {
      "constant": true,
      "inputs": [
        {
          "name": "slot",
          "type": "uint64"
        }
      ],
      "name": "getExit",
      "outputs": [
        {
          "name": "",
          "type": "address"
        },
        {
          "name": "",
          "type": "uint256"
        },
        {
          "name": "",
          "type": "uint256"
        },
        {
          "name": "",
          "type": "uint8"
        }
      ],
      "payable": false,
      "stateMutability": "view",
      "type": "function"
    },
    {
      "constant": true,
      "inputs": [
        {
          "name": "blockNumber",
          "type": "uint256"
        }
      ],
      "name": "getBlockRoot",
      "outputs": [
        {
          "name": "root",
          "type": "bytes32"
        }
      ],
      "payable": false,
      "stateMutability": "view",
      "type": "function"
    }
  ],
  "bytecode": "0x60806040526004805467ffffffffffffffff191690556103e860065560006007553480156200002d57600080fd5b5060405160208062003706833981016040525160098054600160a060020a031916600160a060020a03831617905562000065620000aa565b604051809103906000f08015801562000082573d6000803e3d6000fd5b50600a8054600160a060020a031916600160a060020a039290921691909117905550620000bb565b6040516104f6806200321083390190565b61314580620000cb6000396000f30060806040526004361061011c5763ffffffff7c0100000000000000000000000000000000000000000000000000000000600035041663058a650881146101215780631cc6ffa01461016d57806327e235e31461018257806338a9e0bc146101bc5780634003567e146101e3578063750f0acc1461022d578063784172141461024f57806382251cd914610271578063a9737595146102c4578063baa47694146102f6578063bcd5df391461030e578063c6ab44cd14610326578063d157796e1461033b578063e12ed13c146103a8578063e41a5d17146103bd578063e9a067c0146103d5578063f0b9e5ba14610428578063f586df65146104c6578063f6d0ba1a14610547578063f8353cf014610591578063f95643b114610619575b600080fd5b34801561012d57600080fd5b5061016b6004803567ffffffffffffffff16906024803591604435808301929082013591606435808301929082013591608435918201910135610631565b005b34801561017957600080fd5b5061016b6107f8565b34801561018e57600080fd5b506101a3600160a060020a0360043516610876565b6040805192835260208301919091528051918290030190f35b3480156101c857600080fd5b506101d161088f565b60408051918252519081900360200190f35b3480156101ef57600080fd5b5061016b6004803567ffffffffffffffff16906024803591604435808301929082013591606435808301929082013591608435918201910135610895565b34801561023957600080fd5b5061016b67ffffffffffffffff60043516610b93565b34801561025b57600080fd5b5061016b67ffffffffffffffff60043516610d31565b61016b6004803567ffffffffffffffff16906024803580820192908101359160443580820192908101359160643580820192908101359160843580820192908101359160a43590810191013560c4610f5a565b3480156102d057600080fd5b506102d9611190565b6040805167ffffffffffffffff9092168252519081900360200190f35b34801561030257600080fd5b5061016b6004356111a0565b34801561031a57600080fd5b506102d96004356112f0565b34801561033257600080fd5b5061016b61132c565b34801561034757600080fd5b5061035d67ffffffffffffffff60043516611383565b6040518085600160a060020a0316600160a060020a0316815260200184815260200183815260200182600381111561039157fe5b60ff16815260200194505050505060405180910390f35b3480156103b457600080fd5b506101d161142a565b3480156103c957600080fd5b506101d1600435611430565b61016b6004803567ffffffffffffffff16906024803580820192908101359160443580820192908101359160643580820192908101359160843580820192908101359160a43590810191013560c4611442565b34801561043457600080fd5b50604080516020600460443581810135601f8101849004840285018401909552848452610491948235600160a060020a03169460248035953695946064949201919081908401838280828437509497506116cf9650505050505050565b604080517fffffffff000000000000000000000000000000000000000000000000000000009092168252519081900360200190f35b3480156104d257600080fd5b50604080516020601f60643560048181013592830184900484028501840190955281845261053394803594602480359567ffffffffffffffff6044351695369560849493019181908401838280828437509497506117a39650505050505050565b604080519115158252519081900360200190f35b34801561055357600080fd5b5061016b6004803567ffffffffffffffff169060248035916044358083019290820135916064358083019290820135916084359182019101356118c5565b34801561059d57600080fd5b506105b367ffffffffffffffff600435166119e1565b6040805167ffffffffffffffff881681526020810187905263ffffffff861691810191909152600160a060020a0380851660608301528316608082015260a0810182600381111561060057fe5b60ff168152602001965050505050505060405180910390f35b34801561062557600080fd5b506101a3600435611b20565b8760018067ffffffffffffffff8316600090815260056020526040902060039081015460a060020a900460ff169081111561066857fe5b146106ab576040805160e560020a62461bcd02815260206004820152600b60248201526000805160206130fa833981519152604482015290519081900360640190fd5b8961074d8b8a8a8080601f0160208091040260200160405190810160405280939291908181526020018383808284378201915050505050508c88888080601f0160208091040260200160405190810160405280939291908181526020018383808284378201915050505050508b8b8080601f01602080910402602001604051908101604052809392919081815260200183838082843750611b39945050505050565b6107568b611cc3565b67ffffffffffffffff811660009081526005602081905260408220600481018054600160a060020a031990811690915591810180549092169091556006810182905560078101829055600881018290556009015560016107b582611d1f565b815481106107bf57fe5b90600052602060002090600491828204019190066008026101000a81549067ffffffffffffffff02191690555050505050505050505050565b33600081815260208190526040808220600101805490839055905190929183156108fc02918491818181858888f1935050505015801561083c573d6000803e3d6000fd5b5060408051828152905133917fba49a755e2e4831fb6ef34b384178b03af45679532c9ac5a2199b27b4dddea8d919081900360200190a250565b6000602081905290815260409020805460019091015482565b60065481565b61089d612fe7565b8860028067ffffffffffffffff8316600090815260056020526040902060039081015460a060020a900460ff16908111156108d457fe5b14610917576040805160e560020a62461bcd02815260206004820152600b60248201526000805160206130fa833981519152604482015290519081900360640190fd5b61095089898080601f01602080910402602001604051908101604052809392919081815260200183838082843750611d9b945050505050565b92506109de85858080601f016020809104026020016040519081016040528093929190818152602001838380828437820191505050505050600360008e67ffffffffffffffff1667ffffffffffffffff16815260200190815260200160002060000160009054906101000a9004600160a060020a0316856060015160001916611f749092919063ffffffff16565b1515610a22576040805160e560020a62461bcd02815260206004820152601160248201526000805160206130da833981519152604482015290519081900360640190fd5b825167ffffffffffffffff8c8116911614610a87576040805160e560020a62461bcd02815260206004820152601e60248201527f5478206973207265666572656e63696e6720616e6f7468657220736c6f740000604482015290519081900360640190fd5b67ffffffffffffffff8b166000908152600360205260409020600101548a11610aaf57600080fd5b610af3836000015184606001518c8a8a8080601f01602080910402602001604051908101604052809392919081815260200183838082843750611f9d945050505050565b67ffffffffffffffff8b1660009081526002602090815260408083205460059283905292200154610b3091600160a060020a039081169116612039565b67ffffffffffffffff8b16600081815260056020526040808220600301805460a060020a60ff02191660a060020a179055517f7deeb80e1644537d3ba4f917cfcbaba62b54354e9f2598d6885d52e359885e259190a25050505050505050505050565b8060038067ffffffffffffffff8316600090815260056020526040902060039081015460a060020a900460ff1690811115610bca57fe5b14610c0d576040805160e560020a62461bcd02815260206004820152600b60248201526000805160206130fa833981519152604482015290519081900360640190fd5b67ffffffffffffffff8316600090815260056020526040902060020154600160a060020a03163314610c89576040805160e560020a62461bcd02815260206004820152601860248201527f596f7520646f206e6f74206f776e2074686174205554584f0000000000000000604482015290519081900360640190fd5b67ffffffffffffffff8084166000908152600560205260408082206003810154905482517f42842e0e000000000000000000000000000000000000000000000000000000008152306004820152336024820152941660448501529051600160a060020a03909116926342842e0e92606480830193919282900301818387803b158015610d1457600080fd5b505af1158015610d28573d6000803e3d6000fd5b50505050505050565b67ffffffffffffffff811660009081526005602052604081209060038281015460a060020a900460ff1690811115610d6557fe5b1480610d8957506003808281015460a060020a900460ff1690811115610d8757fe5b145b15610d9357610f56565b600681015462093a80429190910311610dab57610f56565b600260038281015460a060020a900460ff1690811115610dc757fe5b1415610e195760038101805460a060020a60ff0219169055600581015467ffffffffffffffff8316600090815260026020526040902054610e1491600160a060020a039081169116612039565b610ec0565b6005810154600282018054600160a060020a031916600160a060020a03928316179081905560038301805460a060020a60ff02191674030000000000000000000000000000000000000000179055610e71911661210e565b600281015460408051600160a060020a0390921682525167ffffffffffffffff8416917f432647a5fb9bdea356d78f8e3d83b6ddc2e78b4e4a702ac7eb968f7fe03d9dda919081900360200190a25b67ffffffffffffffff821660009081526005602081905260408220600481018054600160a060020a03199081169091559181018054909216909155600681018290556007810182905560088101829055600901556001610f1f83611d1f565b81548110610f2957fe5b90600052602060002090600491828204019190066008026101000a81549067ffffffffffffffff02191690555b5050565b3467016345785d8a000014610f6e57600080fd5b33600090815260208190526040902054610f8e903463ffffffff6121d416565b336000908152602081905260409020558b60018067ffffffffffffffff8316600090815260056020526040902060039081015460a060020a900460ff1690811115610fd557fe5b14611018576040805160e560020a62461bcd02815260206004820152600b60248201526000805160206130fa833981519152604482015290519081900360640190fd5b6111398d8d8080601f0160208091040260200160405190810160405280939291908181526020018383808284378201915050505050508c8c8080601f0160208091040260200160405190810160405280939291908181526020018383808284378201915050505050508b8b8080601f0160208091040260200160405190810160405280939291908181526020018383808284378201915050505050508a8a8080601f01602080910402602001604051908101604052809392919081815260200183838082843782019150505050505089898080601f016020809104026020016040519081016040528093929190818152602001838380828437505060408051808201825294508d935060029250849150839080828437506121e79350505050565b6111808e6111768d8d8080601f01602080910402602001604051908101604052809392919081815260200183838082843750612224945050505050565b602086013561224a565b5050505050505050505050505050565b60045467ffffffffffffffff1681565b600954604080517f797327ae0000000000000000000000000000000000000000000000000000000081523360048201529051600160a060020a039092169163797327ae916024808201926020929091908290030181600087803b15801561120657600080fd5b505af115801561121a573d6000803e3d6000fd5b505050506040513d602081101561123057600080fd5b5051151561123d57600080fd5b61127860065461126c6006546112606006546007546121d490919063ffffffff16565b9063ffffffff61231316565b9063ffffffff61232816565b6007818155604080518082018252848152426020808301828152600096875260088252958490209251835594516001909201919091559154815190815292830184905282810191909152517f6d91cd6ccac8368394df514e6aee19a55264f5ab49a891af91ca86da27bedd4f9181900360600190a150565b60018054829081106112fe57fe5b9060005260206000209060049182820401919006600802915054906101000a900467ffffffffffffffff1681565b60015460005b81811015610f565761137b60018281548110151561134c57fe5b90600052602060002090600491828204019190066008029054906101000a900467ffffffffffffffff16610d31565b600101611332565b600080600080611391613015565b5050505067ffffffffffffffff919091166000818152600560208181526040808420815160c0810183526004820154600160a060020a039081168252828601541681850181905260068301549382019390935260078201546060820152600882015460808201819052600983015460a090920182905296909552929091526003909101549094929350909160a060020a90910460ff1690565b60075481565b60009081526008602052604090205490565b3467016345785d8a00001461145657600080fd5b33600090815260208190526040902054611476903463ffffffff6121d416565b336000908152602081905260408120919091558c908067ffffffffffffffff8316600090815260056020526040902060039081015460a060020a900460ff16908111156114bf57fe5b14611502576040805160e560020a62461bcd02815260206004820152600b60248201526000805160206130fa833981519152604482015290519081900360640190fd5b61153b8b8b8080601f01602080910402602001604051908101604052809392919081815260200183838082843750612224945050505050565b600160a060020a0316331461154f57600080fd5b6116708d8d8080601f0160208091040260200160405190810160405280939291908181526020018383808284378201915050505050508c8c8080601f0160208091040260200160405190810160405280939291908181526020018383808284378201915050505050508b8b8080601f0160208091040260200160405190810160405280939291908181526020018383808284378201915050505050508a8a8080601f01602080910402602001604051908101604052809392919081815260200183838082843782019150505050505089898080601f016020809104026020016040519081016040528093929190818152602001838380828437505060408051808201825294508d935060029250849150839080828437506121e79350505050565b6111808e6116ad8f8f8080601f01602080910402602001604051908101604052809392919081815260200183838082843750612224945050505050565b6040805180820182529087906002908390839080828437506123519350505050565b600954604080517fe744092e00000000000000000000000000000000000000000000000000000000815233600482018190529151600093600160a060020a03169163e744092e91602480830192602092919082900301818887803b15801561173657600080fd5b505af115801561174a573d6000803e3d6000fd5b505050506040513d602081101561176057600080fd5b5051151561176d57600080fd5b61177985856001612485565b507ff0b9e5ba00000000000000000000000000000000000000000000000000000000949350505050565b600a546040517ff586df65000000000000000000000000000000000000000000000000000000008152600481018681526024820186905267ffffffffffffffff85166044830152608060648301908152845160848401528451600094600160a060020a03169363f586df65938a938a938a938a93929160a49091019060208501908083838e5b83811015611841578181015183820152602001611829565b50505050905090810190601f16801561186e5780820380516001836020036101000a031916815260200191505b5095505050505050602060405180830381600087803b15801561189057600080fd5b505af11580156118a4573d6000803e3d6000fd5b505050506040513d60208110156118ba57600080fd5b505195945050505050565b8760018067ffffffffffffffff8316600090815260056020526040902060039081015460a060020a900460ff16908111156118fc57fe5b1461193f576040805160e560020a62461bcd02815260206004820152600b60248201526000805160206130fa833981519152604482015290519081900360640190fd5b8961074d8b8a8a8080601f0160208091040260200160405190810160405280939291908181526020018383808284378201915050505050508c88888080601f0160208091040260200160405190810160405280939291908181526020018383808284378201915050505050508b8b8080601f01602080910402602001604051908101604052809392919081815260200183838082843750612821945050505050565b6000806000806000806119f261305e565b67ffffffffffffffff888116600090815260056020908152604091829020825160e081018452815494851681526801000000000000000090940463ffffffff16918401919091526001810154918301919091526002810154600160a060020a039081166060840152600380830154918216608085015260a084019160a060020a900460ff1690811115611a8157fe5b6003811115611a8c57fe5b81526040805160c0810182526004840154600160a060020a0390811682526005850154166020808301919091526006850154828401526007850154606080840191909152600886015460808085019190915260099096015460a080850191909152948201929092528551928601519086015191860151948601519590930151919d929c509a50919850919650945092505050565b6008602052600090815260409020805460019091015482565b611b41612fe7565b611b4a85611d9b565b67ffffffffffffffff8716600090815260056020819052604090912001546060820151919250611b8b91908590600160a060020a031663ffffffff611f7416565b1515611bcf576040805160e560020a62461bcd02815260206004820152601160248201526000805160206130da833981519152604482015290519081900360640190fd5b805167ffffffffffffffff878116911614611c34576040805160e560020a62461bcd02815260206004820152601e60248201527f5478206973207265666572656e63696e6720616e6f7468657220736c6f740000604482015290519081900360640190fd5b67ffffffffffffffff8616600090815260056020526040902060090154608082015114611cab576040805160e560020a62461bcd02815260206004820152601260248201527f4e6f74206120646972656374207370656e640000000000000000000000000000604482015290519081900360640190fd5b611cbb8682606001518685611f9d565b505050505050565b67ffffffffffffffff811660009081526005602081905260409091200154611cf490600160a060020a031633612039565b67ffffffffffffffff166000908152600560205260409020600301805460a060020a60ff0219169055565b600154600090815b81811015611d87578367ffffffffffffffff16600182815481101515611d4957fe5b6000918252602090912060048204015460039091166008026101000a900467ffffffffffffffff161415611d7f57809250611d94565b600101611d27565b6802000000000000000092505b5050919050565b611da3612fe7565b6060611dad612fe7565b611dc76004611dbb866129dd565b9063ffffffff612a0016565b9150611dea826000815181101515611ddb57fe5b90602001906020020151612a8e565b67ffffffffffffffff1681528151611e099083906001908110611ddb57fe5b60808201528151611e219083906002908110611ddb57fe5b63ffffffff1660208201528151611e4e9083906003908110611e3f57fe5b90602001906020020151612ab2565b600160a060020a0316604082015260808101511515611f0b578060000151604051602001808267ffffffffffffffff1667ffffffffffffffff1660c060020a0281526008019150506040516020818303038152906040526040518082805190602001908083835b60208310611ed45780518252601f199092019160209182019101611eb5565b5181516020939093036101000a60001901801990911692169190911790526040519201829003909120606085015250611f6d915050565b836040518082805190602001908083835b60208310611f3b5780518252601f199092019160209182019101611f1c565b5181516020939093036101000a6000190180199091169216919091179052604051920182900390912060608501525050505b9392505050565b6000611f808484612ad7565b600160a060020a031682600160a060020a03161490509392505050565b60008281526008602052604090205460065483811515611fb957fe5b0615611fd057838114611fcb57600080fd5b612032565b611fdc848287856117a3565b1515612032576040805160e560020a62461bcd02815260206004820181905260248201527f5478206e6f7420696e636c7564656420696e20636c61696d656420626c6f636b604482015290519081900360640190fd5b5050505050565b600160a060020a03821660009081526020819052604090205461206a9067016345785d8a000063ffffffff612d3316565b600160a060020a0380841660009081526020819052604080822093909355908316815220600101546120aa9067016345785d8a000063ffffffff6121d416565b600160a060020a038083166000818152602081815260409182902060010194909455805167016345785d8a0000815290519193928616927fbd6bf2f753dc1a7dee94a7abd7645adc6c228c2af17fd72d9104674cc5d2127392918290030190a35050565b600160a060020a03811660009081526020819052604090205461213f9067016345785d8a000063ffffffff612d3316565b600160a060020a0382166000908152602081905260409020908155600101546121769067016345785d8a000063ffffffff6121d416565b600160a060020a0382166000818152602081815260409182902060010193909355805167016345785d8a00008152905191927f5406cdbb33189b887da81a90c7ff307f3af1854b2504d0bde438b8bb5b7d8b5292918290030190a250565b818101828110156121e157fe5b92915050565b60065460208201518115156121f857fe5b0615612216576122118584848460016020020151612d45565b611cbb565b611cbb868686868686612dcd565b600060606122366004611dbb856129dd565b9050611f6d816003815181101515611e3f57fe5b67ffffffffffffffff83166000818152600560209081526040808320600390810180547402000000000000000000000000000000000000000060a060020a60ff021990911617905560028352818420805433600160a060020a03199182161790915582518084018452600160a060020a0389811682528186018981528888529390955283862090518154909216919094161783555160019290920191909155517f7866a4e258966d935dedb7b3a912110c549aba222af732ac3a2efb5609cb97929190a2505050565b6000818381151561232057fe5b049392505050565b6000821515612339575060006121e1565b5081810281838281151561234957fe5b04146121e157fe5b6001805480820190915560048082047fb10e2d527612073b26eecdfd717e6a320cf44b4afac2b0732d9fcbe2b7fa0cf601805467ffffffffffffffff8781166008600396871681026101000a828102930219909316919091179092556000828152600560208181526040808420815160c081018352600160a060020a038c16808252338286018190524283860181905234606085018190528e5160808601819052978f015160a09095018590529b85018054600160a060020a031990811690941790559684018054909216811790915560068301959095556007820198909855948501919091556009840195909555948201805460a060020a60ff02191660a060020a17905592519093927fbaf912dedc1b0ee4647f945b0432e694bce1aa2c4e21052d977687641587495691a350505050565b61248d61305e565b6007546000906124a490600163ffffffff6121d416565b600781905567ffffffffffffffff8516835233608084015263ffffffff841660208401526040830152600160a060020a0385166060830152600060a08301819052506004546040805167ffffffffffffffff90921660c060020a02602080840191909152336c010000000000000000000000009081026028850152600160a060020a03891602603c84015281518084036030018152605090930191829052825182918401908083835b6020831061256c5780518252601f19909201916020918201910161254d565b51815160209384036101000a6000190180199092169116179052604080519290940182900390912060c060020a900467ffffffffffffffff81811660009081526005845285902089518154948b015167ffffffffffffffff199095169216919091176bffffffff000000000000000019166801000000000000000063ffffffff909416939093029290921782559287015160018201556060870151600282018054600160a060020a0319908116600160a060020a0393841617909155608089015160038085018054909316919093161780825560a08a0151959850899750929550925060a060020a60ff02199091169060a060020a90849081111561266d57fe5b021790555060c091909101518051600483018054600160a060020a0319908116600160a060020a03938416179091556020808401516005860180549093169316929092179055604080830151600685015560608084015160078601556080840151600886015560a0909301516009909401939093558251808401845267ffffffffffffffff851660c060020a02928101929092528251808303604801815260688301938490528051929384939192909182918401908083835b602083106127455780518252601f199092019160209182019101612726565b51815160209384036101000a6000190180199092169116179052604080519290940182900390912086524295810195909552506007805460009081526008865282902086518155958501516001909601959095559354845190815263ffffffff881693810193909352505081513392600160a060020a0389169267ffffffffffffffff8616927fd986268aed6074e7376db923df55ed41523cdf24bc906df2ad602751b0009834929181900390910190a450506004805467ffffffffffffffff8082166001011667ffffffffffffffff19909116179055505050565b612829612fe7565b67ffffffffffffffff86166000908152600560205260409020600901548410801561286f575067ffffffffffffffff861660009081526005602052604090206008015484115b15156128eb576040805160e560020a62461bcd02815260206004820152602660248201527f54782073686f756c64206265206265747765656e20746865206578697427732060448201527f626c6f636b730000000000000000000000000000000000000000000000000000606482015290519081900360840190fd5b6128f485611d9b565b67ffffffffffffffff8716600090815260056020526040902060040154606082015191925061293491908590600160a060020a031663ffffffff611f7416565b1515612978576040805160e560020a62461bcd02815260206004820152601160248201526000805160206130da833981519152604482015290519081900360640190fd5b805167ffffffffffffffff878116911614611cab576040805160e560020a62461bcd02815260206004820152601e60248201527f5478206973207265666572656e63696e6720616e6f7468657220736c6f740000604482015290519081900360640190fd5b6129e56130a1565b50805160408051808201909152602092830181529182015290565b6060612a0a6130b8565b600083604051908082528060200260200182016040528015612a4657816020015b612a336130a1565b815260200190600190039081612a2b5790505b509250612a5285612eb7565b91505b83811015612a8657612a6682612edc565b8382815181101515612a7457fe5b60209081029091010152600101612a55565b505092915050565b6000806000612a9c84612f0e565b90516020919091036101000a9004949350505050565b600080612abe83612f0e565b50516c0100000000000000000000000090049392505050565b600080600080600085516042141515612aef57600080fd5b856000815181101515612afe57fe5b90602001015160f860020a900460f860020a0260f860020a900460ff166002811115612b2657fe5b9350602186015191506041860151905060ff604287015116925060016002811115612b4d57fe5b846002811115612b5957fe5b1415612c0957604080517f19457468657265756d205369676e6564204d6573736167653a0a333200000000602080830191909152603c8083018b905283518084039091018152605c90920192839052815191929182918401908083835b60208310612bd55780518252601f199092019160209182019101612bb6565b6001836020036101000a03801982511681845116808217855250505050505090500191505060405180910390209650612cc3565b6002846002811115612c1757fe5b1415612cc357604080517f19457468657265756d205369676e6564204d6573736167653a0a200000000000602080830191909152603b8083018b905283518084039091018152605b90920192839052815191929182918401908083835b60208310612c935780518252601f199092019160209182019101612c74565b6001836020036101000a038019825116818451168082178552505050505050905001915050604051809103902096505b60408051600080825260208083018085528b905260ff8716838501526060830186905260808301859052925160019360a0808501949193601f19840193928390039091019190865af1158015612d1d573d6000803e3d6000fd5b5050604051601f19015198975050505050505050565b600082821115612d3f57fe5b50900390565b612d4d612fe7565b612d5685611d9b565b60408101516060820151919250612d759190859063ffffffff611f7416565b1515612db9576040805160e560020a62461bcd02815260206004820152601160248201526000805160206130da833981519152604482015290519081900360640190fd5b612032816000015182606001518487611f9d565b612dd5612fe7565b612ddd612fe7565b6020830151835110612dee57600080fd5b612df787611d9b565b9150612e0288611d9b565b8051835191925067ffffffffffffffff918216911614612e2157600080fd5b60408101516060830151612e3c91869063ffffffff611f7416565b1515612e80576040805160e560020a62461bcd02815260206004820152601160248201526000805160206130da833981519152604482015290519081900360640190fd5b805160608201518451612e9592919089611f9d565b815160608301516020850151612ead92919088611f9d565b5050505050505050565b612ebf6130b8565b6000612eca83612f71565b83519383529092016020820152919050565b612ee46130a1565b60208201516000612ef482612fb7565b828452602080850182905292019390910192909252919050565b805180516000918291821a90826080831015612f305781945060019350612f69565b60b8831015612f4e5760018660200151039350816001019450612f69565b60b78303905080600187602001510303935080820160010194505b505050915091565b8051805160009190821a906080821015612f8e5760009250611d94565b60b8821080612fa9575060c08210158015612fa9575060f882105b15611d945760019250611d94565b8051600090811a6080811015612fd05760019150612fe1565b60b8811015612fe157607e19810191505b50919050565b6040805160a08101825260008082526020820181905291810182905260608101829052608081019190915290565b60c0604051908101604052806000600160a060020a031681526020016000600160a060020a03168152602001600081526020016000815260200160008152602001600081525090565b604080516101808101825260008082526020820181905291810182905260608101829052608081018290529060a0820190815260200161309c613015565b905290565b604080518082019091526000808252602082015290565b6060604051908101604052806130cc6130a1565b81526020016000815250905600496e76616c6964207369676e617475726500000000000000000000000000000057726f6e67207374617465000000000000000000000000000000000000000000a165627a7a72305820e377462bba7cf0ee0ae6a9f266ec8b1baad10f6f60a00d9558c754f67b96f6fc0029608060405234801561001057600080fd5b507f290decd9548b62a8d60345a988386fc84ba6bc95484008f6362f93160ef3e56360005561004a6001604064010000000061004f810204565b61012c565b815b60ff8083169082161161012757600060ff6000198301166041811061007257fe5b0154600060ff6000198401166041811061008857fe5b0154604080516020808201949094528082019290925280518083038201815260609092019081905281519192909182918401908083835b602083106100de5780518252601f1990920191602091820191016100bf565b6001836020036101000a038019825116818451168082178552505050505050905001915050604051809103902060008260ff1660418110151561011d57fe5b0155600101610051565b505050565b6103bb8061013b6000396000f3006080604052600436106100565763ffffffff7c010000000000000000000000000000000000000000000000000000000060003504166348419ad8811461005b578063509a7e5414610085578063f586df65146100ef575b600080fd5b34801561006757600080fd5b50610073600435610170565b60408051918252519081900360200190f35b34801561009157600080fd5b50604080516020600460443581810135601f8101849004840285018401909552848452610073948235946024803567ffffffffffffffff16953695946064949201919081908401838280828437509497506101849650505050505050565b3480156100fb57600080fd5b50604080516020601f60643560048181013592830184900484028501840190955281845261015c94803594602480359567ffffffffffffffff6044351695369560849493019181908401838280828437509497506103759650505050505050565b604080519115158252519081900360200190f35b6000816041811061017d57fe5b0154905081565b6000806000806000806020600888510381151561019d57fe5b061580156101ae5750610808875111155b15156101b957600080fd5b50505050602083015185906008907801000000000000000000000000000000000000000000000000900460005b60408110156103685760018216151561020f576000816041811061020657fe5b01549450610230565b6020830192508261ffff1687511015151561022957600080fd5b8287015194505b6001881615156102bf57604080516020808201879052818301889052825180830384018152606090920192839052815191929182918401908083835b6020831061028b5780518252601f19909201916020918201910161026c565b6001836020036101000a03801982511681845116808217855250505050505090500191505060405180910390209350610340565b604080516020808201889052818301879052825180830384018152606090920192839052815191929182918401908083835b602083106103105780518252601f1990920191602091820191016102f1565b6001836020036101000a038019825116818451168082178552505050505050905001915050604051809103902093505b600267ffffffffffffffff8316049150600267ffffffffffffffff89160497506001016101e6565b5091979650505050505050565b600080610383868585610184565b909414959450505050505600a165627a7a723058201a50cc3ef740e25f5e83771c2b640af7eed0c1cef56ecef8a63dc6e094bf4be50029",
  "source": "pragma solidity ^0.4.24;\n\n// Zeppelin Imports\nimport \"openzeppelin-solidity/contracts/token/ERC721/ERC721.sol\";\nimport \"openzeppelin-solidity/contracts/token/ERC721/ERC721Receiver.sol\";\nimport \"openzeppelin-solidity/contracts/math/SafeMath.sol\";\n\n// Lib deps\nimport \"../Libraries/Transaction/Transaction.sol\";\nimport \"../Libraries/ECVerify.sol\";\n\nimport \"./SparseMerkleTree.sol\";\nimport \"./ValidatorManagerContract.sol\";\n\n\ncontract RootChain is ERC721Receiver {\n\n    /**\n     * Event for coin deposit logging.\n     * @notice The Deposit event indicates that a deposit block has been added\n     *         to the Plasma chain\n     * @param slot Plasma slot, a unique identifier, assigned to the deposit\n     * @param blockNumber The index of the block in which a deposit transaction\n     *                    is included\n     * @param denomination Quantity of a particular coin deposited\n     * @param from The address of the depositor\n     */\n    event Deposit(uint64 indexed slot, uint256 blockNumber, uint64 denomination, address indexed from, address indexed contractAddress);\n    /**\n     * Event for block submission logging\n     * @notice The event indicates the addition of a new Plasma block\n     * @param blockNumber The block number of the submitted block\n     * @param root The root hash of the Merkle tree containing all of a block's\n     *             transactions.\n     * @param timestamp The time when a block was added to the Plasma chain\n     */\n    event SubmittedBlock(uint256 blockNumber, bytes32 root, uint256 timestamp);\n\n\n    /**\n     * Event for logging exit starts\n     * @param slot The slot of the coin being exited\n     * @param owner The user who claims to own the coin being exited\n     */\n    event StartedExit(uint64 indexed slot, address indexed owner);\n    /**\n     * Event for exit challenge logging\n     * @notice This event only fires if `challengeBefore` is called. Other\n     *         types of challenges cannot be responded to and thus do not\n     *         require an event.\n     * @param slot The slot of the coin whose exit was challenged\n     */\n    event ChallengedExit(uint64 indexed slot);\n    /**\n     * Event for exit response logging\n     * @notice This only logs responses to `challengeBefore`, other challenges\n     *         do not require responses.\n     * @param slot The slot of the coin whose challenge was responded to\n     */\n    event RespondedExitChallenge(uint64 indexed slot);\n    /**\n     * Event for exit finalization logging\n     * @param slot The slot of the coin whose exit has been finalized\n     * @param owner The owner of the coin whose exit has been finalized\n     */\n    event FinalizedExit(uint64 indexed slot, address owner);\n\n    /**\n     * Event to log the freeing of a bond\n     * @param from The address of the user whose bonds have been freed\n     * @param amount The bond amount which can now be withdrawn\n     */\n    event FreedBond(address indexed from, uint256 amount);\n    /**\n     * Event to log the slashing of a bond\n     * @param from The address of the user whose bonds have been slashed\n     * @param to The recipient of the slashed bonds\n     * @param amount The bound amount which has been forfeited\n     */\n    event SlashedBond(address indexed from, address indexed to, uint256 amount);\n    /**\n     * Event to log the withdrawal of a bond\n     * @param from The address of the user who withdrew bonds\n     * @param amount The bond amount which has been withdrawn\n     */\n    event WithdrewBonds(address indexed from, uint256 amount);\n\n    using SafeMath for uint256;\n    using Transaction for bytes;\n    using ECVerify for bytes32;\n\n    uint256 constant BOND_AMOUNT = 0.1 ether;\n\n    /*\n     * Modifiers\n     */\n    modifier isValidator() {\n        require(vmc.checkValidator(msg.sender));\n        _;\n    }\n\n    modifier isTokenApproved(address _address) {\n        require(vmc.allowedTokens(_address));\n        _;\n    }\n\n    modifier isBonded() {\n        require(msg.value == BOND_AMOUNT);\n\n        // Save challenger's bond\n        balances[msg.sender].bonded = balances[msg.sender].bonded.add(msg.value);\n        _;\n    }\n\n    modifier isState(uint64 slot, State state) {\n        require(coins[slot].state == state, \"Wrong state\");\n        _;\n    }\n\n    modifier cleanupExit(uint64 slot) {\n        _;\n        delete coins[slot].exit;\n        delete exitSlots[getExitIndex(slot)];\n    }\n\n    struct Balance {\n        uint256 bonded;\n        uint256 withdrawable;\n    }\n    mapping (address => Balance) public balances;\n\n    // exits\n    uint64[] public exitSlots;\n    // Each exit can only be challenged by a single challenger at a time\n    mapping (uint64 => address) challengers;\n    struct Exit {\n        address prevOwner; // previous owner of coin\n        address owner;\n        uint256 createdAt;\n        uint256 bond;\n        uint256 prevBlock;\n        uint256 exitBlock;\n    }\n    enum State {\n        DEPOSITED,\n        EXITING,\n        CHALLENGED,\n        EXITED\n    }\n\n    // Track owners of txs that are pending a response\n    struct Challenge {\n        address owner;\n        uint256 blockNumber;\n    }\n    mapping (uint64 => Challenge) challenges;\n\n    // tracking of NFTs deposited in each slot\n    uint64 public numCoins = 0;\n    mapping (uint64 => Coin) coins;\n    struct Coin {\n        uint64 uid; // there are up to 2^64 cards, one for every leaf of\n                    // a depth 64 Sparse Merkle Tree\n        uint32 denomination; // Currently set to 1 always, subject to change once the token changes\n        uint256 depositBlock;\n        address owner; // who owns that nft\n        address contractAddress; // which contract does the coin belong to\n        State state;\n        Exit exit;\n    }\n\n    // child chain\n    uint256 public childBlockInterval = 1000;\n    uint256 public currentBlock = 0;\n    struct ChildBlock {\n        bytes32 root;\n        uint256 createdAt;\n    }\n\n    mapping(uint256 => ChildBlock) public childChain;\n    ValidatorManagerContract vmc;\n    SparseMerkleTree smt;\n\n    constructor (ValidatorManagerContract _vmc) public {\n        vmc = _vmc;\n        smt = new SparseMerkleTree();\n    }\n\n\n    /// @dev called by a Validator to append a Plasma block to the Plasma chain\n    /// @param root The transaction root hash of the Plasma block being added\n    function submitBlock(bytes32 root)\n        public\n        isValidator\n    {\n        // rounding to next whole `childBlockInterval`\n        currentBlock = currentBlock.add(childBlockInterval)\n            .div(childBlockInterval)\n            .mul(childBlockInterval);\n\n        childChain[currentBlock] = ChildBlock({\n            root: root,\n            createdAt: block.timestamp\n        });\n\n        emit SubmittedBlock(currentBlock, root, block.timestamp);\n    }\n\n    /// @dev Allows anyone to deposit funds into the Plasma chain, called when\n    //       contract receives ERC721\n    /// @notice Appends a deposit block to the Plasma chain\n    /// @param from The address of the user who is depositing a coin\n    /// @param uid The uid of the ERC721 coin being deposited. This is an\n    ///            identifier allocated by the ERC721 token contract; it is not\n    ///            related to `slot`.\n    /// @param denomination The quantity of a particular coin being deposited\n    function deposit(address from, uint64 uid, uint32 denomination)\n        private\n    {\n        currentBlock = currentBlock.add(1);\n\n        // Update state. Leave `exit` empty\n        Coin memory coin;\n        coin.uid = uid;\n        coin.contractAddress = msg.sender;\n        coin.denomination = denomination;\n        coin.depositBlock = currentBlock;\n        coin.owner = from;\n        coin.state = State.DEPOSITED;\n        uint64 slot = uint64(bytes8(keccak256(abi.encodePacked(numCoins, msg.sender, from))));\n        coins[slot] = coin;\n\n        childChain[currentBlock] = ChildBlock({\n            // save signed transaction hash as root\n            // hash for deposit transactions is the hash of its slot\n            root: keccak256(abi.encodePacked(slot)),\n            createdAt: block.timestamp\n        });\n\n        // create a utxo at `slot`\n        emit Deposit(\n            slot,\n            currentBlock,\n            denomination,\n            from,\n            msg.sender\n        );\n\n        numCoins += 1;\n    }\n\n    /******************** EXIT RELATED ********************/\n\n    function startExit(\n        uint64 slot,\n        bytes prevTxBytes, bytes exitingTxBytes,\n        bytes prevTxInclusionProof, bytes exitingTxInclusionProof,\n        bytes signature,\n        uint256[2] blocks)\n        external\n        payable isBonded\n        isState(slot, State.DEPOSITED)\n    {\n        require(msg.sender == exitingTxBytes.getOwner());\n        doInclusionChecks(\n            prevTxBytes, exitingTxBytes,\n            prevTxInclusionProof, exitingTxInclusionProof,\n            signature,\n            blocks\n        );\n        pushExit(slot, prevTxBytes.getOwner(), blocks);\n    }\n\n    /// @dev Verifies that consecutive two transaction involving the same coin\n    ///      are valid\n    /// @notice If exitingTxBytes corresponds to a deposit transaction,\n    ///         prevTxBytes cannot have a meaningul value and thus it is ignored.\n    /// @param prevTxBytes The RLP-encoded transaction involving a particular\n    ///        coin which took place directly before exitingTxBytes\n    /// @param exitingTxBytes The RLP-encoded transaction involving a particular\n    ///        coin which an exiting owner of the coin claims to be the latest\n    /// @param prevTxInclusionProof An inclusion proof of prevTx\n    /// @param exitingTxInclusionProof An inclusion proof of exitingTx\n    /// @param signature The signature of the exitingTxBytes by the coin\n    ///        owner indicated in prevTx\n    /// @param blocks An array of two block numbers, at index 0, the block\n    ///        containing the prevTx and at index 1, the block containing\n    ///        the exitingTx\n    function doInclusionChecks(\n        bytes prevTxBytes, bytes exitingTxBytes,\n        bytes prevTxInclusionProof, bytes exitingTxInclusionProof,\n        bytes signature,\n        uint256[2] blocks)\n        private\n        view\n    {\n        if (blocks[1] % childBlockInterval != 0) {\n            checkIncludedAndSigned(\n                exitingTxBytes,\n                exitingTxInclusionProof,\n                signature,\n                blocks[1]\n            );\n        } else {\n            checkBothIncludedAndSigned(\n                prevTxBytes, exitingTxBytes, prevTxInclusionProof,\n                exitingTxInclusionProof, signature,\n                blocks\n            );\n        }\n    }\n\n    // Needed to bypass stack limit errors\n    function pushExit(\n        uint64 slot,\n        address prevOwner,\n        uint256[2] blocks)\n        private\n    {\n        // Push exit to list\n        exitSlots.push(slot);\n\n        // Create exit\n        Coin storage c = coins[slot];\n        c.exit = Exit({\n            prevOwner: prevOwner,\n            owner: msg.sender,\n            createdAt: block.timestamp,\n            bond: msg.value,\n            prevBlock: blocks[0],\n            exitBlock: blocks[1]\n        });\n\n        // Update coin state\n        c.state = State.EXITING;\n        emit StartedExit(slot, msg.sender);\n    }\n\n    /// @dev Finalizes an exit, i.e. puts the exiting coin into the EXITED\n    ///      state which will allow it to be withdrawn, provided the exit has\n    ///      matured and has not been successfully challenged\n    function finalizeExit(uint64 slot) public {\n        Coin storage coin = coins[slot];\n\n        // If a coin is not under exit/challenge, then ignore it\n        if (coin.state == State.DEPOSITED || coin.state == State.EXITED)\n            return;\n\n        // If an exit is not matured, ignore it\n        if ((block.timestamp - coin.exit.createdAt) <= 7 days)\n            return;\n\n        // If a coin has been challenged AND not responded, slash it\n        if (coin.state == State.CHALLENGED) {\n            // Update coin state & penalize exitor\n            coin.state = State.DEPOSITED;\n            slashBond(coin.exit.owner, challengers[slot]);\n        // otherwise, the exit has not been challenged, or it has been challenged and responded\n        } else {\n            // Update coin's owner\n            coin.owner = coin.exit.owner;\n            coin.state = State.EXITED;\n\n            // Allow the exitor to withdraw their bond\n            freeBond(coin.owner);\n\n            emit FinalizedExit(slot, coin.owner);\n        }\n        delete coins[slot].exit;\n        delete exitSlots[getExitIndex(slot)];\n    }\n\n    /// @dev Iterates through all of the initiated exits and finalizes those\n    ///      which have matured without being successfully challenged\n    function finalizeExits() external {\n        uint256 exitSlotsLength = exitSlots.length;\n        for (uint256 i = 0; i < exitSlotsLength; i++) {\n            finalizeExit(exitSlots[i]);\n        }\n    }\n\n    /// @dev Withdraw a UTXO that has been exited\n    /// @param slot The slot of the coin being withdrawn\n    function withdraw(uint64 slot) external isState(slot, State.EXITED) {\n        require(coins[slot].owner == msg.sender, \"You do not own that UTXO\");\n        ERC721(coins[slot].contractAddress).safeTransferFrom(address(this), msg.sender, uint256(coins[slot].uid));\n    }\n\n    /******************** CHALLENGES ********************/\n\n    /// @dev Submits proof of a transaction before prevTx as an exit challenge\n    /// @notice Exitor has to call respondChallengeBefore and submit a\n    ///         transaction before prevTx or prevTx itself.\n    /// @param slot The slot corresponding to the coin whose exit is being challenged\n    /// @param prevTxBytes The RLP-encoded transaction involving a particular\n    ///        coin which took place directly before exitingTxBytes\n    /// @param txBytes The RLP-encoded transaction involving a particular\n    ///        coin which an exiting owner of the coin claims to be the latest\n    /// @param prevTxInclusionProof An inclusion proof of prevTx\n    /// @param txInclusionProof An inclusion proof of exitingTx\n    /// @param signature The signature of the txBytes by the coin\n    ///        owner indicated in prevTx\n    /// @param blocks An array of two block numbers, at index 0, the block\n    ///        containing the prevTx and at index 1, the block containing\n    ///        the exitingTx\n    function challengeBefore(\n        uint64 slot,\n        bytes prevTxBytes, bytes txBytes,\n        bytes prevTxInclusionProof, bytes txInclusionProof,\n        bytes signature,\n        uint256[2] blocks)\n        external\n        payable isBonded\n        isState(slot, State.EXITING)\n    {\n        doInclusionChecks(\n            prevTxBytes, txBytes,\n            prevTxInclusionProof, txInclusionProof,\n            signature,\n            blocks\n        );\n        setChallenged(slot, txBytes.getOwner(), blocks[1]);\n    }\n\n    // If `challengeBefore` is successfully responded to, then set state to\n    // EXITING and allow the coin to be exited. No need to attach a bond\n    // when responding to a challenge.\n    function respondChallengeBefore(\n        uint64 slot,\n        uint256 challengingBlockNumber,\n        bytes challengingTransaction,\n        bytes proof,\n        bytes signature)\n        external\n        isState(slot, State.CHALLENGED)\n    {\n        Transaction.TX memory txData = challengingTransaction.getTx();\n        require(txData.hash.ecverify(signature, challenges[slot].owner), \"Invalid signature\");\n        require(txData.slot == slot, \"Tx is referencing another slot\");\n        require(challengingBlockNumber > challenges[slot].blockNumber);\n        checkTxIncluded(txData.slot, txData.hash, challengingBlockNumber, proof);\n\n        // If the exit was actually challenged and responded, penalize the challenger\n        slashBond(challengers[slot], coins[slot].exit.owner);\n\n        // Put coin back to the exiting state\n        coins[slot].state = State.EXITING;\n\n        emit RespondedExitChallenge(slot);\n    }\n\n    function challengeBetween(\n        uint64 slot,\n        uint256 challengingBlockNumber,\n        bytes challengingTransaction,\n        bytes proof,\n        bytes signature)\n        external isState(slot, State.EXITING) cleanupExit(slot)\n    {\n        checkBetween(slot, challengingTransaction, challengingBlockNumber, signature, proof);\n        applyPenalties(slot);\n    }\n\n    function challengeAfter(\n        uint64 slot,\n        uint256 challengingBlockNumber,\n        bytes challengingTransaction,\n        bytes proof,\n        bytes signature)\n        external\n        isState(slot, State.EXITING)\n        cleanupExit(slot)\n    {\n        checkAfter(slot, challengingTransaction, challengingBlockNumber, signature, proof);\n        applyPenalties(slot);\n    }\n\n\n    // Must challenge with a tx in between\n\n    // Check that the challenging transaction has been signed\n    // by the attested previous owner of the coin in the exit\n    function checkBetween(uint64 slot, bytes txBytes, uint blockNumber, bytes signature, bytes proof) private view {\n        require(\n            coins[slot].exit.exitBlock > blockNumber &&\n            coins[slot].exit.prevBlock < blockNumber,\n            \"Tx should be between the exit's blocks\"\n        );\n\n        Transaction.TX memory txData = txBytes.getTx();\n        require(txData.hash.ecverify(signature, coins[slot].exit.prevOwner), \"Invalid signature\");\n        require(txData.slot == slot, \"Tx is referencing another slot\");\n        checkTxIncluded(slot, txData.hash, blockNumber, proof);\n    }\n\n    function checkAfter(uint64 slot, bytes txBytes, uint blockNumber, bytes signature, bytes proof) private view {\n        Transaction.TX memory txData = txBytes.getTx();\n        require(txData.hash.ecverify(signature, coins[slot].exit.owner), \"Invalid signature\");\n        require(txData.slot == slot, \"Tx is referencing another slot\");\n        require(txData.prevBlock == coins[slot].exit.exitBlock, \"Not a direct spend\");\n        checkTxIncluded(slot, txData.hash, blockNumber, proof);\n    }\n\n    function applyPenalties(uint64 slot) private {\n        // Apply penalties and change state\n        slashBond(coins[slot].exit.owner, msg.sender);\n        coins[slot].state = State.DEPOSITED;\n    }\n\n    /// @param slot The slot of the coin being challenged\n    /// @param owner The user claimed to be the true ower of the coin\n    function setChallenged(uint64 slot, address owner, uint256 challengingBlockNumber) private {\n        // When an exit is challenged, its state is set to challenged and the\n        // contract waits for the exitor's response. The exit is not\n        // immediately deleted.\n        coins[slot].state = State.CHALLENGED;\n        // Save the challenger's address, for applying penalties\n        challengers[slot] = msg.sender;\n\n        // Need to save the exiting transaction's owner, to verify\n        // that the response is valid\n        challenges[slot] = Challenge({\n            owner: owner, \n            blockNumber: challengingBlockNumber\n        });\n\n        emit ChallengedExit(slot);\n    }\n\n    /******************** BOND RELATED ********************/\n\n    function freeBond(address from) private {\n        balances[from].bonded = balances[from].bonded.sub(BOND_AMOUNT);\n        balances[from].withdrawable = balances[from].withdrawable.add(BOND_AMOUNT);\n        emit FreedBond(from, BOND_AMOUNT);\n    }\n\n    function withdrawBonds() external {\n        // Can only withdraw bond if the msg.sender\n        uint256 amount = balances[msg.sender].withdrawable;\n        balances[msg.sender].withdrawable = 0; // no reentrancy!\n\n        msg.sender.transfer(amount);\n        emit WithdrewBonds(msg.sender, amount);\n    }\n\n    function slashBond(address from, address to) private {\n        balances[from].bonded = balances[from].bonded.sub(BOND_AMOUNT);\n        balances[to].withdrawable = balances[to].withdrawable.add(BOND_AMOUNT);\n        emit SlashedBond(from, to, BOND_AMOUNT);\n    }\n\n    /******************** PROOF CHECKING ********************/\n\n    function checkIncludedAndSigned(\n        bytes exitingTxBytes,\n        bytes exitingTxInclusionProof,\n        bytes signature,\n        uint256 blk)\n        private\n        view\n    {\n        Transaction.TX memory txData = exitingTxBytes.getTx();\n\n        // Deposit transactions need to be signed by their owners\n        // e.g. Alice signs a transaction to Alice\n        require(txData.hash.ecverify(signature, txData.owner), \"Invalid signature\");\n        checkTxIncluded(txData.slot, txData.hash, blk, exitingTxInclusionProof);\n    }\n\n    function checkBothIncludedAndSigned(\n        bytes prevTxBytes, bytes exitingTxBytes,\n        bytes prevTxInclusionProof, bytes exitingTxInclusionProof,\n        bytes signature,\n        uint256[2] blocks)\n        private\n        view\n    {\n        require(blocks[0] < blocks[1]);\n\n        Transaction.TX memory exitingTxData = exitingTxBytes.getTx();\n        Transaction.TX memory prevTxData = prevTxBytes.getTx();\n\n        // Both transactions need to be referring to the same slot\n        require(exitingTxData.slot == prevTxData.slot);\n\n        // The exiting transaction must be signed by the previous transaciton's owner\n        require(exitingTxData.hash.ecverify(signature, prevTxData.owner), \"Invalid signature\");\n\n        // Both transactions must be included in their respective blocks\n        checkTxIncluded(prevTxData.slot, prevTxData.hash, blocks[0], prevTxInclusionProof);\n        checkTxIncluded(exitingTxData.slot, exitingTxData.hash, blocks[1], exitingTxInclusionProof);\n    }\n\n    function checkTxIncluded(uint64 slot, bytes32 txHash, uint256 blockNumber, bytes proof) private view {\n        bytes32 root = childChain[blockNumber].root;\n\n        if (blockNumber % childBlockInterval != 0) {\n            // Check against block root for deposit block numbers\n            require(txHash == root);\n        } else {\n            // Check against merkle tree for all other block numbers\n            require(\n                checkMembership(\n                    txHash,\n                    root,\n                    slot,\n                    proof\n            ),\n            \"Tx not included in claimed block\"\n            );\n        }\n    }\n\n    /******************** ERC721 ********************/\n\n    function onERC721Received(address _from, uint256 _uid, bytes)\n        public\n        isTokenApproved(msg.sender)\n        returns(bytes4)\n    {\n        deposit(_from, uint64(_uid), uint32(1));\n        return ERC721_RECEIVED;\n    }\n\n    /******************** HELPERS ********************/\n\n    /// @notice If the slot's exit is not found, a large number is returned to\n    ///         ensure the exit array access fails\n    /// @param slot The slot being exited\n    /// @return The index of the slot's exit in the exitSlots array\n    function getExitIndex(uint64 slot) private view returns (uint256) {\n        uint256 len = exitSlots.length;\n        for (uint256 i = 0; i < len; i++) {\n            if (exitSlots[i] == slot)\n                return i;\n        }\n        // a defualt value to return larger than the possible number of coins\n        return 2**65;\n    }\n\n    function checkMembership(\n        bytes32 txHash,\n        bytes32 root,\n        uint64 slot,\n        bytes proof) public view returns (bool)\n    {\n        return smt.checkMembership(\n            txHash,\n            root,\n            slot,\n            proof);\n    }\n\n    function getPlasmaCoin(uint64 slot) external view returns(uint64, uint256, uint32, address, address, State) {\n        Coin memory c = coins[slot];\n        return (c.uid, c.depositBlock, c.denomination, c.owner, c.contractAddress, c.state);\n    }\n\n    function getExit(uint64 slot) external view returns(address, uint256, uint256, State) {\n        Exit memory e = coins[slot].exit;\n        return (e.owner, e.prevBlock, e.exitBlock, coins[slot].state);\n    }\n\n    function getBlockRoot(uint256 blockNumber) public view returns (bytes32 root) {\n        root = childChain[blockNumber].root;\n    }\n}\n",
  "sourcePath": "/Users/NichananK/Desktop/Last-Nifty/last-server/contracts/Core/RootChain.sol",
  "compiler": {
    "name": "solc",
    "version": "0.4.24+commit.e67f0147.Emscripten.clang"
  },
  "schemaVersion": "2.0.0",
  "updatedAt": "2018-07-26T03:34:21.872Z"
}