{
  "contractName": "SparseMerkleTree",
  "abi": [
    {
      "constant": true,
      "inputs": [
        {
          "name": "",
          "type": "uint256"
        }
      ],
      "name": "defaultHashes",
      "outputs": [
        {
          "name": "",
          "type": "bytes32"
        }
      ],
      "payable": false,
      "stateMutability": "view",
      "type": "function"
    },
    {
      "inputs": [],
      "payable": false,
      "stateMutability": "nonpayable",
      "type": "constructor"
    },
    {
      "constant": true,
      "inputs": [
        {
          "name": "leaf",
          "type": "bytes32"
        },
        {
          "name": "root",
          "type": "bytes32"
        },
        {
          "name": "tokenID",
          "type": "uint64"
        },
        {
          "name": "proof",
          "type": "bytes"
        }
      ],
      "name": "checkMembership",
      "outputs": [
        {
          "name": "",
          "type": "bool"
        }
      ],
      "payable": false,
      "stateMutability": "view",
      "type": "function"
    },
    {
      "constant": true,
      "inputs": [
        {
          "name": "leaf",
          "type": "bytes32"
        },
        {
          "name": "index",
          "type": "uint64"
        },
        {
          "name": "proof",
          "type": "bytes"
        }
      ],
      "name": "getRoot",
      "outputs": [
        {
          "name": "",
          "type": "bytes32"
        }
      ],
      "payable": false,
      "stateMutability": "view",
      "type": "function"
    }
  ],
  "bytecode": "0x608060405234801561001057600080fd5b507f290decd9548b62a8d60345a988386fc84ba6bc95484008f6362f93160ef3e56360005561004a6001604064010000000061004f810204565b61012c565b815b60ff8083169082161161012757600060ff6000198301166041811061007257fe5b0154600060ff6000198401166041811061008857fe5b0154604080516020808201949094528082019290925280518083038201815260609092019081905281519192909182918401908083835b602083106100de5780518252601f1990920191602091820191016100bf565b6001836020036101000a038019825116818451168082178552505050505050905001915050604051809103902060008260ff1660418110151561011d57fe5b0155600101610051565b505050565b6103bb8061013b6000396000f3006080604052600436106100565763ffffffff7c010000000000000000000000000000000000000000000000000000000060003504166348419ad8811461005b578063509a7e5414610085578063f586df65146100ef575b600080fd5b34801561006757600080fd5b50610073600435610170565b60408051918252519081900360200190f35b34801561009157600080fd5b50604080516020600460443581810135601f8101849004840285018401909552848452610073948235946024803567ffffffffffffffff16953695946064949201919081908401838280828437509497506101849650505050505050565b3480156100fb57600080fd5b50604080516020601f60643560048181013592830184900484028501840190955281845261015c94803594602480359567ffffffffffffffff6044351695369560849493019181908401838280828437509497506103759650505050505050565b604080519115158252519081900360200190f35b6000816041811061017d57fe5b0154905081565b6000806000806000806020600888510381151561019d57fe5b061580156101ae5750610808875111155b15156101b957600080fd5b50505050602083015185906008907801000000000000000000000000000000000000000000000000900460005b60408110156103685760018216151561020f576000816041811061020657fe5b01549450610230565b6020830192508261ffff1687511015151561022957600080fd5b8287015194505b6001881615156102bf57604080516020808201879052818301889052825180830384018152606090920192839052815191929182918401908083835b6020831061028b5780518252601f19909201916020918201910161026c565b6001836020036101000a03801982511681845116808217855250505050505090500191505060405180910390209350610340565b604080516020808201889052818301879052825180830384018152606090920192839052815191929182918401908083835b602083106103105780518252601f1990920191602091820191016102f1565b6001836020036101000a038019825116818451168082178552505050505050905001915050604051809103902093505b600267ffffffffffffffff8316049150600267ffffffffffffffff89160497506001016101e6565b5091979650505050505050565b600080610383868585610184565b909414959450505050505600a165627a7a723058201a50cc3ef740e25f5e83771c2b640af7eed0c1cef56ecef8a63dc6e094bf4be50029",
  "source": "pragma solidity ^0.4.24;\n\n\n// Based on https://rinkeby.etherscan.io/address/0x881544e0b2e02a79ad10b01eca51660889d5452b#code\ncontract SparseMerkleTree {\n\n    uint8 constant DEPTH = 64;\n    bytes32[DEPTH + 1] public defaultHashes;\n\n    constructor() public {\n        // defaultHash[0] is being set to keccak256(uint256(0));\n        defaultHashes[0] = 0x290decd9548b62a8d60345a988386fc84ba6bc95484008f6362f93160ef3e563;\n        setDefaultHashes(1, DEPTH);\n    }\n\n    function checkMembership(\n        bytes32 leaf,\n        bytes32 root,\n        uint64 tokenID,\n        bytes proof) public view returns (bool)\n    {\n        bytes32 computedHash = getRoot(leaf, tokenID, proof);\n        return (computedHash == root);\n    }\n\n    // first 64 bits of the proof are the 0/1 bits\n    function getRoot(bytes32 leaf, uint64 index, bytes proof) public view returns (bytes32) {\n        require((proof.length - 8) % 32 == 0 && proof.length <= 2056);\n        bytes32 proofElement;\n        bytes32 computedHash = leaf;\n        uint16 p = 8;\n        uint64 proofBits;\n        assembly {proofBits := div(mload(add(proof, 32)), exp(256, 24))}\n\n        for (uint d = 0; d < DEPTH; d++ ) {\n            if (proofBits % 2 == 0) { // check if last bit of proofBits is 0\n                proofElement = defaultHashes[d];\n            } else {\n                p += 32;\n                require(proof.length >= p);\n                assembly { proofElement := mload(add(proof, p)) }\n            }\n            if (index % 2 == 0) {\n                computedHash = keccak256(abi.encodePacked(computedHash, proofElement));\n            } else {\n                computedHash = keccak256(abi.encodePacked(proofElement, computedHash));\n            }\n            proofBits = proofBits / 2; // shift it right for next bit\n            index = index / 2;\n        }\n        return computedHash;\n    }\n\n    function setDefaultHashes(uint8 startIndex, uint8 endIndex) private {\n        for (uint8 i = startIndex; i <= endIndex; i ++) {\n            defaultHashes[i] = keccak256(abi.encodePacked(defaultHashes[i-1], defaultHashes[i-1]));\n        }\n    }\n}\n",
  "sourcePath": "/Users/NichananK/Desktop/Last-Nifty/last-server/contracts/Core/SparseMerkleTree.sol",
  "compiler": {
    "name": "solc",
    "version": "0.4.24+commit.e67f0147.Emscripten.clang"
  },
  "schemaVersion": "2.0.0",
  "updatedAt": "2018-07-26T03:34:20.733Z"
}