{
  "contractName": "ValidatorManagerContract",
  "abi": [
    {
      "constant": false,
      "inputs": [],
      "name": "renounceOwnership",
      "outputs": [],
      "payable": false,
      "stateMutability": "nonpayable",
      "type": "function"
    },
    {
      "constant": true,
      "inputs": [],
      "name": "owner",
      "outputs": [
        {
          "name": "",
          "type": "address"
        }
      ],
      "payable": false,
      "stateMutability": "view",
      "type": "function"
    },
    {
      "constant": true,
      "inputs": [
        {
          "name": "",
          "type": "address"
        }
      ],
      "name": "allowedTokens",
      "outputs": [
        {
          "name": "",
          "type": "bool"
        }
      ],
      "payable": false,
      "stateMutability": "view",
      "type": "function"
    },
    {
      "constant": false,
      "inputs": [
        {
          "name": "_newOwner",
          "type": "address"
        }
      ],
      "name": "transferOwnership",
      "outputs": [],
      "payable": false,
      "stateMutability": "nonpayable",
      "type": "function"
    },
    {
      "constant": true,
      "inputs": [
        {
          "name": "",
          "type": "address"
        }
      ],
      "name": "validators",
      "outputs": [
        {
          "name": "",
          "type": "bool"
        }
      ],
      "payable": false,
      "stateMutability": "view",
      "type": "function"
    },
    {
      "anonymous": false,
      "inputs": [
        {
          "indexed": true,
          "name": "previousOwner",
          "type": "address"
        }
      ],
      "name": "OwnershipRenounced",
      "type": "event"
    },
    {
      "anonymous": false,
      "inputs": [
        {
          "indexed": true,
          "name": "previousOwner",
          "type": "address"
        },
        {
          "indexed": true,
          "name": "newOwner",
          "type": "address"
        }
      ],
      "name": "OwnershipTransferred",
      "type": "event"
    },
    {
      "constant": true,
      "inputs": [
        {
          "name": "_address",
          "type": "address"
        }
      ],
      "name": "checkValidator",
      "outputs": [
        {
          "name": "",
          "type": "bool"
        }
      ],
      "payable": false,
      "stateMutability": "view",
      "type": "function"
    },
    {
      "constant": false,
      "inputs": [
        {
          "name": "_address",
          "type": "address"
        }
      ],
      "name": "toggleValidator",
      "outputs": [],
      "payable": false,
      "stateMutability": "nonpayable",
      "type": "function"
    },
    {
      "constant": false,
      "inputs": [
        {
          "name": "_token",
          "type": "address"
        }
      ],
      "name": "toggleToken",
      "outputs": [],
      "payable": false,
      "stateMutability": "nonpayable",
      "type": "function"
    }
  ],
  "bytecode": "0x608060405260008054600160a060020a03191633179055610446806100256000396000f30060806040526004361061008d5763ffffffff7c01000000000000000000000000000000000000000000000000000000006000350416631124e56f811461009257806315c75f89146100b5578063715018a6146100d6578063797327ae146100eb5780638da5cb5b14610120578063e744092e14610151578063f2fde38b14610172578063fa52c7d814610193575b600080fd5b34801561009e57600080fd5b506100b3600160a060020a03600435166101b4565b005b3480156100c157600080fd5b506100b3600160a060020a03600435166101f4565b3480156100e257600080fd5b506100b3610293565b3480156100f757600080fd5b5061010c600160a060020a03600435166102ff565b604080519115158252519081900360200190f35b34801561012c57600080fd5b50610135610341565b60408051600160a060020a039092168252519081900360200190f35b34801561015d57600080fd5b5061010c600160a060020a0360043516610350565b34801561017e57600080fd5b506100b3600160a060020a0360043516610365565b34801561019f57600080fd5b5061010c600160a060020a0360043516610388565b600054600160a060020a031633146101cb57600080fd5b600160a060020a03166000908152600160205260409020805460ff19811660ff90911615179055565b6101fd336102ff565b151561026a57604080517f08c379a000000000000000000000000000000000000000000000000000000000815260206004820152600f60248201527f6e6f7420612076616c696461746f720000000000000000000000000000000000604482015290519081900360640190fd5b600160a060020a03166000908152600260205260409020805460ff19811660ff90911615179055565b600054600160a060020a031633146102aa57600080fd5b60008054604051600160a060020a03909116917ff8df31144d9c2f0f6b59d69b8b98abd5459d07f2742c4df920b25aae33c6482091a26000805473ffffffffffffffffffffffffffffffffffffffff19169055565b60008054600160a060020a038381169116141561031e5750600161033c565b50600160a060020a03811660009081526001602052604090205460ff165b919050565b600054600160a060020a031681565b60026020526000908152604090205460ff1681565b600054600160a060020a0316331461037c57600080fd5b6103858161039d565b50565b60016020526000908152604090205460ff1681565b600160a060020a03811615156103b257600080fd5b60008054604051600160a060020a03808516939216917f8be0079c531659141344cd1fd0a4f28419497f9722a3daafe3b4186f6b6457e091a36000805473ffffffffffffffffffffffffffffffffffffffff1916600160a060020a03929092169190911790555600a165627a7a72305820ddb3220c7aec867cb57ab601ded4255f5eba56cf15506adebacaca4eb2edeec40029",
  "source": "pragma solidity ^0.4.24;\n\nimport \"openzeppelin-solidity/contracts/ownership/Ownable.sol\";\n\n\ncontract ValidatorManagerContract is Ownable {\n\n    mapping (address => bool) public validators;\n    mapping (address => bool) public allowedTokens;\n\n    function checkValidator(address _address) public view returns (bool) {\n        // owner is a permanent validator\n        if (_address == owner)\n            return true;\n        return validators[_address];\n    }\n\n    function toggleValidator(address _address) public onlyOwner {\n        validators[_address] = !validators[_address];\n    }\n\n    function toggleToken(address _token) public {\n        require(checkValidator(msg.sender), \"not a validator\");\n        allowedTokens[_token] = !allowedTokens[_token];\n    }\n\n}\n",
  "sourcePath": "/Users/NichananK/Desktop/Last-Nifty/last-server/contracts/Core/ValidatorManagerContract.sol",
  "compiler": {
    "name": "solc",
    "version": "0.4.24+commit.e67f0147.Emscripten.clang"
  },
  "schemaVersion": "2.0.0",
  "updatedAt": "2018-07-26T03:34:21.853Z"
}